{
  "_format": "hh3-artifact-1",
  "contractName": "SimpleSupplyChain",
  "sourceName": "contracts/SimpleSupplyChain.sol",
  "abi": [
    {
      "inputs": [
        {
          "internalType": "string",
          "name": "_greeting",
          "type": "string"
        }
      ],
      "stateMutability": "nonpayable",
      "type": "constructor"
    },
    {
      "inputs": [],
      "name": "buyer",
      "outputs": [
        {
          "internalType": "address",
          "name": "",
          "type": "address"
        }
      ],
      "stateMutability": "view",
      "type": "function"
    },
    {
      "inputs": [],
      "name": "deployed",
      "outputs": [
        {
          "internalType": "bool",
          "name": "",
          "type": "bool"
        }
      ],
      "stateMutability": "view",
      "type": "function"
    },
    {
      "inputs": [],
      "name": "getDetails",
      "outputs": [
        {
          "internalType": "string",
          "name": "_greeting",
          "type": "string"
        },
        {
          "internalType": "bool",
          "name": "_deployed",
          "type": "bool"
        }
      ],
      "stateMutability": "view",
      "type": "function"
    },
    {
      "inputs": [],
      "name": "greeting",
      "outputs": [
        {
          "internalType": "string",
          "name": "",
          "type": "string"
        }
      ],
      "stateMutability": "view",
      "type": "function"
    },
    {
      "inputs": [],
      "name": "price",
      "outputs": [
        {
          "internalType": "uint256",
          "name": "",
          "type": "uint256"
        }
      ],
      "stateMutability": "view",
      "type": "function"
    },
    {
      "inputs": [],
      "name": "quantity",
      "outputs": [
        {
          "internalType": "uint256",
          "name": "",
          "type": "uint256"
        }
      ],
      "stateMutability": "view",
      "type": "function"
    },
    {
      "inputs": [],
      "name": "vendor",
      "outputs": [
        {
          "internalType": "address",
          "name": "",
          "type": "address"
        }
      ],
      "stateMutability": "view",
      "type": "function"
    }
  ],
  "bytecode": "0x608060405234801561001057600080fd5b506040516105d93803806105d983398101604081905261002f91610065565b600061003b82826101b7565b50506005805460ff19166001179055610276565b634e487b7160e01b600052604160045260246000fd5b6000602080838503121561007857600080fd5b82516001600160401b038082111561008f57600080fd5b818501915085601f8301126100a357600080fd5b8151818111156100b5576100b561004f565b604051601f8201601f19908116603f011681019083821181831017156100dd576100dd61004f565b8160405282815288868487010111156100f557600080fd5b600093505b8284101561011757848401860151818501870152928501926100fa565b600086848301015280965050505050505092915050565b600181811c9082168061014257607f821691505b60208210810361016257634e487b7160e01b600052602260045260246000fd5b50919050565b601f8211156101b257600081815260208120601f850160051c8101602086101561018f5750805b601f850160051c820191505b818110156101ae5782815560010161019b565b5050505b505050565b81516001600160401b038111156101d0576101d061004f565b6101e4816101de845461012e565b84610168565b602080601f83116001811461021957600084156102015750858301515b600019600386901b1c1916600185901b1785556101ae565b600085815260208120601f198616915b8281101561024857888601518255948401946001909101908401610229565b50858210156102665787850151600019600388901b60f8161c191681555b5050505050600190811b01905550565b610354806102856000396000f3fe608060405234801561001057600080fd5b506004361061007d5760003560e01c8063a035b1fe1161005b578063a035b1fe146100dc578063ef690cc0146100e5578063f905c15a146100fa578063fbbf93a01461011757600080fd5b80631385a6f21461008257806317fc45e2146100b25780637150d8ae146100c9575b600080fd5b600254610095906001600160a01b031681565b6040516001600160a01b0390911681526020015b60405180910390f35b6100bb60045481565b6040519081526020016100a9565b600154610095906001600160a01b031681565b6100bb60035481565b6100ed61012d565b6040516100a991906102a6565b6005546101079060ff1681565b60405190151581526020016100a9565b61011f6101bb565b6040516100a99291906102c0565b6000805461013a906102e4565b80601f0160208091040260200160405190810160405280929190818152602001828054610166906102e4565b80156101b35780601f10610188576101008083540402835291602001916101b3565b820191906000526020600020905b81548152906001019060200180831161019657829003601f168201915b505050505081565b60055460008054606092829160ff9091169082906101d8906102e4565b80601f0160208091040260200160405190810160405280929190818152602001828054610204906102e4565b80156102515780601f1061022657610100808354040283529160200191610251565b820191906000526020600020905b81548152906001019060200180831161023457829003601f168201915b50505050509150915091509091565b6000815180845260005b818110156102865760208185018101518683018201520161026a565b506000602082860101526020601f19601f83011685010191505092915050565b6020815260006102b96020830184610260565b9392505050565b6040815260006102d36040830185610260565b905082151560208301529392505050565b600181811c908216806102f857607f821691505b60208210810361031857634e487b7160e01b600052602260045260246000fd5b5091905056fea264697066735822122079db79818228dfe97a5d158b6acfc64fbd2debf6cd0c65e351a5041e5f3df31c64736f6c63430008130033",
  "linkReferences": {},
  "deployedLinkReferences": {},
  "immutableReferences": {},
  "inputSourceName": "project/contracts/SimpleSupplyChain.sol",
  "buildInfoId": "solc-0_8_19-b292e524cd8396d41391e151516f8f410a92ebcd"
}