{
  "_format": "hh3-artifact-1",
  "contractName": "SupplyChainAgreement",
  "sourceName": "contracts/SupplyChainAgreement.sol",
  "abi": [
    {
      "inputs": [
        {
          "internalType": "address",
          "name": "_buyer",
          "type": "address"
        },
        {
          "internalType": "address",
          "name": "_vendor",
          "type": "address"
        },
        {
          "internalType": "uint256",
          "name": "_pricePerUnit",
          "type": "uint256"
        },
        {
          "internalType": "uint256",
          "name": "_quantity",
          "type": "uint256"
        },
        {
          "internalType": "uint256",
          "name": "_deliveryDeadline",
          "type": "uint256"
        },
        {
          "internalType": "uint256",
          "name": "_paymentScheduleDays",
          "type": "uint256"
        },
        {
          "internalType": "uint256",
          "name": "_warrantyMonths",
          "type": "uint256"
        }
      ],
      "stateMutability": "payable",
      "type": "constructor"
    },
    {
      "anonymous": false,
      "inputs": [
        {
          "indexed": true,
          "internalType": "address",
          "name": "buyer",
          "type": "address"
        },
        {
          "indexed": true,
          "internalType": "address",
          "name": "vendor",
          "type": "address"
        },
        {
          "indexed": false,
          "internalType": "uint256",
          "name": "totalValue",
          "type": "uint256"
        },
        {
          "indexed": false,
          "internalType": "uint256",
          "name": "timestamp",
          "type": "uint256"
        }
      ],
      "name": "AgreementCreated",
      "type": "event"
    },
    {
      "anonymous": false,
      "inputs": [
        {
          "indexed": true,
          "internalType": "address",
          "name": "confirmer",
          "type": "address"
        },
        {
          "indexed": false,
          "internalType": "uint256",
          "name": "timestamp",
          "type": "uint256"
        }
      ],
      "name": "DeliveryConfirmed",
      "type": "event"
    },
    {
      "anonymous": false,
      "inputs": [
        {
          "indexed": true,
          "internalType": "address",
          "name": "vendor",
          "type": "address"
        },
        {
          "indexed": false,
          "internalType": "uint256",
          "name": "amount",
          "type": "uint256"
        },
        {
          "indexed": false,
          "internalType": "uint256",
          "name": "timestamp",
          "type": "uint256"
        }
      ],
      "name": "FundsReleased",
      "type": "event"
    },
    {
      "anonymous": false,
      "inputs": [
        {
          "indexed": true,
          "internalType": "address",
          "name": "recipient",
          "type": "address"
        },
        {
          "indexed": false,
          "internalType": "uint256",
          "name": "amount",
          "type": "uint256"
        },
        {
          "indexed": false,
          "internalType": "uint256",
          "name": "timestamp",
          "type": "uint256"
        }
      ],
      "name": "Refunded",
      "type": "event"
    },
    {
      "inputs": [],
      "name": "buyer",
      "outputs": [
        {
          "internalType": "address",
          "name": "",
          "type": "address"
        }
      ],
      "stateMutability": "view",
      "type": "function"
    },
    {
      "inputs": [],
      "name": "confirmDelivery",
      "outputs": [],
      "stateMutability": "nonpayable",
      "type": "function"
    },
    {
      "inputs": [],
      "name": "deliveryConfirmed",
      "outputs": [
        {
          "internalType": "bool",
          "name": "",
          "type": "bool"
        }
      ],
      "stateMutability": "view",
      "type": "function"
    },
    {
      "inputs": [],
      "name": "depositAmount",
      "outputs": [
        {
          "internalType": "uint256",
          "name": "",
          "type": "uint256"
        }
      ],
      "stateMutability": "view",
      "type": "function"
    },
    {
      "inputs": [],
      "name": "fundsReleased",
      "outputs": [
        {
          "internalType": "bool",
          "name": "",
          "type": "bool"
        }
      ],
      "stateMutability": "view",
      "type": "function"
    },
    {
      "inputs": [],
      "name": "getBalance",
      "outputs": [
        {
          "internalType": "uint256",
          "name": "",
          "type": "uint256"
        }
      ],
      "stateMutability": "view",
      "type": "function"
    },
    {
      "inputs": [],
      "name": "getStatus",
      "outputs": [
        {
          "internalType": "bool",
          "name": "_deliveryConfirmed",
          "type": "bool"
        },
        {
          "internalType": "bool",
          "name": "_fundsReleased",
          "type": "bool"
        },
        {
          "internalType": "uint256",
          "name": "_balance",
          "type": "uint256"
        }
      ],
      "stateMutability": "view",
      "type": "function"
    },
    {
      "inputs": [],
      "name": "refund",
      "outputs": [],
      "stateMutability": "nonpayable",
      "type": "function"
    },
    {
      "inputs": [],
      "name": "releaseFunds",
      "outputs": [],
      "stateMutability": "nonpayable",
      "type": "function"
    },
    {
      "inputs": [],
      "name": "terms",
      "outputs": [
        {
          "internalType": "uint256",
          "name": "pricePerUnit",
          "type": "uint256"
        },
        {
          "internalType": "uint256",
          "name": "quantity",
          "type": "uint256"
        },
        {
          "internalType": "uint256",
          "name": "deliveryDeadline",
          "type": "uint256"
        },
        {
          "internalType": "uint256",
          "name": "paymentScheduleDays",
          "type": "uint256"
        },
        {
          "internalType": "uint256",
          "name": "warrantyMonths",
          "type": "uint256"
        },
        {
          "internalType": "uint256",
          "name": "totalValue",
          "type": "uint256"
        }
      ],
      "stateMutability": "view",
      "type": "function"
    },
    {
      "inputs": [],
      "name": "vendor",
      "outputs": [
        {
          "internalType": "address",
          "name": "",
          "type": "address"
        }
      ],
      "stateMutability": "view",
      "type": "function"
    }
  ],
  "bytecode": "0x6080604052604051610ae9380380610ae9833981016040819052610022916102c4565b6001600160a01b03871661007d5760405162461bcd60e51b815260206004820152601660248201527f427579657220616464726573732072657175697265640000000000000000000060448201526064015b60405180910390fd5b6001600160a01b0386166100d35760405162461bcd60e51b815260206004820152601760248201527f56656e646f7220616464726573732072657175697265640000000000000000006044820152606401610074565b600085116101235760405162461bcd60e51b815260206004820152601c60248201527f5072696365206d7573742062652067726561746572207468616e2030000000006044820152606401610074565b600084116101735760405162461bcd60e51b815260206004820152601f60248201527f5175616e74697479206d7573742062652067726561746572207468616e2030006044820152606401610074565b600080546001600160a01b03808a166001600160a01b031992831617835560018054918a16919092161790556101a98587610326565b6040805160c08101825288815260208101889052908101869052606081018590526080810184905260a00181905260028790556003869055600485905560058490556006839055600781905534600881905590915081111561024d5760405162461bcd60e51b815260206004820152601460248201527f496e73756666696369656e74206465706f7369740000000000000000000000006044820152606401610074565b600154600054604080518481524260208201526001600160a01b0393841693909216917f4969d8f058da37f5b596425a39904e9a027ac23d1865d6efd5df5a5e24eef7de910160405180910390a35050505050505050610351565b80516001600160a01b03811681146102bf57600080fd5b919050565b600080600080600080600060e0888a0312156102df57600080fd5b6102e8886102a8565b96506102f6602089016102a8565b604089015160608a015160808b015160a08c015160c0909c01519a9d939c50919a90999198509650945092505050565b808202811582820484141761034b57634e487b7160e01b600052601160045260246000fd5b92915050565b610789806103606000396000f3fe608060405234801561001057600080fd5b50600436106100a95760003560e01c80635e10177b116100715780635e10177b1461012e57806369d89575146101365780637150d8ae1461013e5780639317190014610151578063b564e9261461016e578063d50256251461018057600080fd5b806312065fe0146100ae5780631385a6f2146100c3578063419759f5146100ee5780634e69d560146100f7578063590e1ae314610124575b600080fd5b475b6040519081526020015b60405180910390f35b6001546100d6906001600160a01b031681565b6040516001600160a01b0390911681526020016100ba565b6100b060085481565b60095460ff80821691610100900416476040805193151584529115156020840152908201526060016100ba565b61012c6101cb565b005b61012c6103b4565b61012c610518565b6000546100d6906001600160a01b031681565b60095461015e9060ff1681565b60405190151581526020016100ba565b60095461015e90610100900460ff1681565b60025460035460045460055460065460075461019e95949392919086565b604080519687526020870195909552938501929092526060840152608083015260a082015260c0016100ba565b60095460ff16156102235760405162461bcd60e51b815260206004820152601c60248201527f43616e6e6f7420726566756e642061667465722064656c69766572790000000060448201526064015b60405180910390fd5b6004546102339062093a80610723565b42116102815760405162461bcd60e51b815260206004820152601760248201527f477261636520706572696f64206e6f7420706173736564000000000000000000604482015260640161021a565b600954610100900460ff16156102d25760405162461bcd60e51b8152602060048201526016602482015275119d5b991cc8185b1c9958591e481c995b19585cd95960521b604482015260640161021a565b600080546008546040516001600160a01b03909216918381818185875af1925050503d8060008114610320576040519150601f19603f3d011682016040523d82523d6000602084013e610325565b606091505b50509050806103665760405162461bcd60e51b815260206004820152600d60248201526c1499599d5b990819985a5b1959609a1b604482015260640161021a565b600054600854604080519182524260208301526001600160a01b03909216917f2dc8e290002f06fc0085bbca9dfb8b415cf4d1178950c72ff9ee8f4d8878ee6691015b60405180910390a250565b6000546001600160a01b0316331461040e5760405162461bcd60e51b815260206004820152601f60248201527f4f6e6c792062757965722063616e20636f6e6669726d2064656c697665727900604482015260640161021a565b6004544211158061042e575060045461042a9062015180610723565b4211155b61047a5760405162461bcd60e51b815260206004820152601860248201527f44656c697665727920646561646c696e65207061737365640000000000000000604482015260640161021a565b60095460ff16156104cd5760405162461bcd60e51b815260206004820152601a60248201527f44656c697665727920616c726561647920636f6e6669726d6564000000000000604482015260640161021a565b6009805460ff1916600117905560405133907f28720c586a6e736146008f9bf260b09f29b8dcc37314fed637613ea3aec614f89061050e9042815260200190565b60405180910390a2565b60095460ff166105635760405162461bcd60e51b815260206004820152601660248201527511195b1a5d995c9e481b9bdd0818dbdb999a5c9b595960521b604482015260640161021a565b600954610100900460ff16156105b45760405162461bcd60e51b8152602060048201526016602482015275119d5b991cc8185b1c9958591e481c995b19585cd95960521b604482015260640161021a565b6005546105c4906201518061073c565b6004546105d19190610723565b4210156106205760405162461bcd60e51b815260206004820152601860248201527f5061796d656e74207363686564756c65206e6f74206d65740000000000000000604482015260640161021a565b6009805461ff0019166101001790556001546008546040516000926001600160a01b031691908381818185875af1925050503d806000811461067e576040519150601f19603f3d011682016040523d82523d6000602084013e610683565b606091505b50509050806106c65760405162461bcd60e51b815260206004820152600f60248201526e151c985b9cd9995c8819985a5b1959608a1b604482015260640161021a565b600154600854604080519182524260208301526001600160a01b03909216917fc90c76155d237557f9162f07cd0da2ff40418cd82028c0e89535270fb9de510491016103a9565b634e487b7160e01b600052601160045260246000fd5b808201808211156107365761073661070d565b92915050565b80820281158282048414176107365761073661070d56fea2646970667358221220defd135527e8c98a6710f3f12d364c1f5ab3913e1c24421ba971b2c21734fdea64736f6c63430008130033",
  "linkReferences": {},
  "deployedLinkReferences": {},
  "immutableReferences": {},
  "inputSourceName": "project/contracts/SupplyChainAgreement.sol",
  "buildInfoId": "solc-0_8_19-b292e524cd8396d41391e151516f8f410a92ebcd"
}